{
  "_format": "hh-sol-artifact-1",
  "contractName": "HWC",
  "sourceName": "contracts/HWC.sol",
  "abi": [
    {
      "anonymous": false,
      "inputs": [
        {
          "indexed": false,
          "internalType": "address",
          "name": "previousAdmin",
          "type": "address"
        },
        {
          "indexed": false,
          "internalType": "address",
          "name": "newAdmin",
          "type": "address"
        }
      ],
      "name": "AdminChanged",
      "type": "event"
    },
    {
      "anonymous": false,
      "inputs": [
        {
          "indexed": true,
          "internalType": "address",
          "name": "owner",
          "type": "address"
        },
        {
          "indexed": true,
          "internalType": "address",
          "name": "spender",
          "type": "address"
        },
        {
          "indexed": false,
          "internalType": "uint256",
          "name": "value",
          "type": "uint256"
        }
      ],
      "name": "Approval",
      "type": "event"
    },
    {
      "anonymous": false,
      "inputs": [
        {
          "indexed": true,
          "internalType": "address",
          "name": "beacon",
          "type": "address"
        }
      ],
      "name": "BeaconUpgraded",
      "type": "event"
    },
    {
      "anonymous": false,
      "inputs": [
        {
          "indexed": true,
          "internalType": "address",
          "name": "oldOwner",
          "type": "address"
        },
        {
          "indexed": true,
          "internalType": "address",
          "name": "newOwner",
          "type": "address"
        }
      ],
      "name": "OwnerSet",
      "type": "event"
    },
    {
      "anonymous": false,
      "inputs": [
        {
          "indexed": true,
          "internalType": "address",
          "name": "previousOwner",
          "type": "address"
        },
        {
          "indexed": true,
          "internalType": "address",
          "name": "newOwner",
          "type": "address"
        }
      ],
      "name": "OwnershipTransferred",
      "type": "event"
    },
    {
      "anonymous": false,
      "inputs": [
        {
          "indexed": true,
          "internalType": "address",
          "name": "from",
          "type": "address"
        },
        {
          "indexed": true,
          "internalType": "address",
          "name": "to",
          "type": "address"
        },
        {
          "indexed": false,
          "internalType": "uint256",
          "name": "value",
          "type": "uint256"
        }
      ],
      "name": "Transfer",
      "type": "event"
    },
    {
      "anonymous": false,
      "inputs": [
        {
          "indexed": true,
          "internalType": "address",
          "name": "implementation",
          "type": "address"
        }
      ],
      "name": "Upgraded",
      "type": "event"
    },
    {
      "inputs": [
        {
          "internalType": "address",
          "name": "owner",
          "type": "address"
        },
        {
          "internalType": "address",
          "name": "spender",
          "type": "address"
        }
      ],
      "name": "allowance",
      "outputs": [
        {
          "internalType": "uint256",
          "name": "",
          "type": "uint256"
        }
      ],
      "stateMutability": "view",
      "type": "function"
    },
    {
      "inputs": [
        {
          "internalType": "address",
          "name": "spender",
          "type": "address"
        },
        {
          "internalType": "uint256",
          "name": "amount",
          "type": "uint256"
        }
      ],
      "name": "approve",
      "outputs": [
        {
          "internalType": "bool",
          "name": "",
          "type": "bool"
        }
      ],
      "stateMutability": "nonpayable",
      "type": "function"
    },
    {
      "inputs": [
        {
          "internalType": "address",
          "name": "account",
          "type": "address"
        }
      ],
      "name": "balanceOf",
      "outputs": [
        {
          "internalType": "uint256",
          "name": "",
          "type": "uint256"
        }
      ],
      "stateMutability": "view",
      "type": "function"
    },
    {
      "inputs": [
        {
          "internalType": "address",
          "name": "newOwner",
          "type": "address"
        }
      ],
      "name": "changeOwner",
      "outputs": [],
      "stateMutability": "nonpayable",
      "type": "function"
    },
    {
      "inputs": [],
      "name": "decimals",
      "outputs": [
        {
          "internalType": "uint8",
          "name": "",
          "type": "uint8"
        }
      ],
      "stateMutability": "view",
      "type": "function"
    },
    {
      "inputs": [
        {
          "internalType": "address",
          "name": "spender",
          "type": "address"
        },
        {
          "internalType": "uint256",
          "name": "subtractedValue",
          "type": "uint256"
        }
      ],
      "name": "decreaseAllowance",
      "outputs": [
        {
          "internalType": "bool",
          "name": "",
          "type": "bool"
        }
      ],
      "stateMutability": "nonpayable",
      "type": "function"
    },
    {
      "inputs": [],
      "name": "getOwner",
      "outputs": [
        {
          "internalType": "address",
          "name": "",
          "type": "address"
        }
      ],
      "stateMutability": "view",
      "type": "function"
    },
    {
      "inputs": [
        {
          "internalType": "address",
          "name": "spender",
          "type": "address"
        },
        {
          "internalType": "uint256",
          "name": "addedValue",
          "type": "uint256"
        }
      ],
      "name": "increaseAllowance",
      "outputs": [
        {
          "internalType": "bool",
          "name": "",
          "type": "bool"
        }
      ],
      "stateMutability": "nonpayable",
      "type": "function"
    },
    {
      "inputs": [],
      "name": "initialize",
      "outputs": [],
      "stateMutability": "nonpayable",
      "type": "function"
    },
    {
      "inputs": [],
      "name": "name",
      "outputs": [
        {
          "internalType": "string",
          "name": "",
          "type": "string"
        }
      ],
      "stateMutability": "view",
      "type": "function"
    },
    {
      "inputs": [],
      "name": "owner",
      "outputs": [
        {
          "internalType": "address",
          "name": "",
          "type": "address"
        }
      ],
      "stateMutability": "view",
      "type": "function"
    },
    {
      "inputs": [],
      "name": "renounceOwnership",
      "outputs": [],
      "stateMutability": "nonpayable",
      "type": "function"
    },
    {
      "inputs": [],
      "name": "symbol",
      "outputs": [
        {
          "internalType": "string",
          "name": "",
          "type": "string"
        }
      ],
      "stateMutability": "view",
      "type": "function"
    },
    {
      "inputs": [],
      "name": "totalSupply",
      "outputs": [
        {
          "internalType": "uint256",
          "name": "",
          "type": "uint256"
        }
      ],
      "stateMutability": "view",
      "type": "function"
    },
    {
      "inputs": [
        {
          "internalType": "address",
          "name": "recipient",
          "type": "address"
        },
        {
          "internalType": "uint256",
          "name": "amount",
          "type": "uint256"
        }
      ],
      "name": "transfer",
      "outputs": [
        {
          "internalType": "bool",
          "name": "",
          "type": "bool"
        }
      ],
      "stateMutability": "nonpayable",
      "type": "function"
    },
    {
      "inputs": [
        {
          "internalType": "address",
          "name": "sender",
          "type": "address"
        },
        {
          "internalType": "address",
          "name": "recipient",
          "type": "address"
        },
        {
          "internalType": "uint256",
          "name": "amount",
          "type": "uint256"
        }
      ],
      "name": "transferFrom",
      "outputs": [
        {
          "internalType": "bool",
          "name": "",
          "type": "bool"
        }
      ],
      "stateMutability": "nonpayable",
      "type": "function"
    },
    {
      "inputs": [
        {
          "internalType": "address",
          "name": "newOwner",
          "type": "address"
        }
      ],
      "name": "transferOwnership",
      "outputs": [],
      "stateMutability": "nonpayable",
      "type": "function"
    },
    {
      "inputs": [
        {
          "internalType": "address",
          "name": "newImplementation",
          "type": "address"
        }
      ],
      "name": "upgradeTo",
      "outputs": [],
      "stateMutability": "nonpayable",
      "type": "function"
    },
    {
      "inputs": [
        {
          "internalType": "address",
          "name": "newImplementation",
          "type": "address"
        },
        {
          "internalType": "bytes",
          "name": "data",
          "type": "bytes"
        }
      ],
      "name": "upgradeToAndCall",
      "outputs": [],
      "stateMutability": "payable",
      "type": "function"
    }
  ],
  "bytecode": "0x608060405234801561001057600080fd5b50336000806101000a81548173ffffffffffffffffffffffffffffffffffffffff021916908373ffffffffffffffffffffffffffffffffffffffff16021790555060008054906101000a900473ffffffffffffffffffffffffffffffffffffffff1673ffffffffffffffffffffffffffffffffffffffff16600073ffffffffffffffffffffffffffffffffffffffff167f342827c97908e5e2f71151c08502a66d44b6f758e3ac2f1de95f02eb95f0a73560405160405180910390a3612da3806100db6000396000f3fe6080604052600436106101145760003560e01c8063715018a6116100a0578063a457c2d711610064578063a457c2d714610382578063a6f9dae1146103bf578063a9059cbb146103e8578063dd62ed3e14610425578063f2fde38b1461046257610114565b8063715018a6146102d35780638129fc1c146102ea578063893d20e8146103015780638da5cb5b1461032c57806395d89b411461035757610114565b8063313ce567116100e7578063313ce567146101e95780633659cfe614610214578063395093511461023d5780634f1ef2861461027a57806370a082311461029657610114565b806306fdde0314610119578063095ea7b31461014457806318160ddd1461018157806323b872dd146101ac575b600080fd5b34801561012557600080fd5b5061012e61048b565b60405161013b919061224f565b60405180910390f35b34801561015057600080fd5b5061016b60048036038101906101669190611f0f565b61051d565b6040516101789190612234565b60405180910390f35b34801561018d57600080fd5b5061019661053b565b6040516101a39190612451565b60405180910390f35b3480156101b857600080fd5b506101d360048036038101906101ce9190611e60565b610545565b6040516101e09190612234565b60405180910390f35b3480156101f557600080fd5b506101fe61063d565b60405161020b919061246c565b60405180910390f35b34801561022057600080fd5b5061023b60048036038101906102369190611df3565b610646565b005b34801561024957600080fd5b50610264600480360381019061025f9190611f0f565b61066d565b6040516102719190612234565b60405180910390f35b610294600480360381019061028f9190611eb3565b610719565b005b3480156102a257600080fd5b506102bd60048036038101906102b89190611df3565b610732565b6040516102ca9190612451565b60405180910390f35b3480156102df57600080fd5b506102e861077b565b005b3480156102f657600080fd5b506102ff610803565b005b34801561030d57600080fd5b5061031661097d565b6040516103239190612219565b60405180910390f35b34801561033857600080fd5b506103416109a6565b60405161034e9190612219565b60405180910390f35b34801561036357600080fd5b5061036c6109d0565b604051610379919061224f565b60405180910390f35b34801561038e57600080fd5b506103a960048036038101906103a49190611f0f565b610a62565b6040516103b69190612234565b60405180910390f35b3480156103cb57600080fd5b506103e660048036038101906103e19190611df3565b610b4d565b005b3480156103f457600080fd5b5061040f600480360381019061040a9190611f0f565b610c98565b60405161041c9190612234565b60405180910390f35b34801561043157600080fd5b5061044c60048036038101906104479190611e20565b610cb6565b6040516104599190612451565b60405180910390f35b34801561046e57600080fd5b5061048960048036038101906104849190611df3565b610d3d565b005b60606036805461049a906127c7565b80601f01602080910402602001604051908101604052809291908181526020018280546104c6906127c7565b80156105135780601f106104e857610100808354040283529160200191610513565b820191906000526020600020905b8154815290600101906020018083116104f657829003601f168201915b5050505050905090565b600061053161052a610e35565b8484610e3d565b6001905092915050565b6000603554905090565b6000610552848484611008565b6000603460008673ffffffffffffffffffffffffffffffffffffffff1673ffffffffffffffffffffffffffffffffffffffff168152602001908152602001600020600061059d610e35565b73ffffffffffffffffffffffffffffffffffffffff1673ffffffffffffffffffffffffffffffffffffffff1681526020019081526020016000205490508281101561061d576040517f08c379a000000000000000000000000000000000000000000000000000000000815260040161061490612371565b60405180910390fd5b61063185610629610e35565b858403610e3d565b60019150509392505050565b60006012905090565b61064f8161128c565b61066a8160405180602001604052806000815250600061130b565b50565b600061070f61067a610e35565b848460346000610688610e35565b73ffffffffffffffffffffffffffffffffffffffff1673ffffffffffffffffffffffffffffffffffffffff16815260200190815260200160002060008873ffffffffffffffffffffffffffffffffffffffff1673ffffffffffffffffffffffffffffffffffffffff1681526020019081526020016000205461070a919061250f565b610e3d565b6001905092915050565b6107228261128c565b61072e8282600161130b565b5050565b6000603360008373ffffffffffffffffffffffffffffffffffffffff1673ffffffffffffffffffffffffffffffffffffffff168152602001908152602001600020549050919050565b610783610e35565b73ffffffffffffffffffffffffffffffffffffffff166107a16109a6565b73ffffffffffffffffffffffffffffffffffffffff16146107f7576040517f08c379a00000000000000000000000000000000000000000000000000000000081526004016107ee90612391565b60405180910390fd5b61080160006114dc565b565b600060159054906101000a900460ff168061082b5750600060149054906101000a900460ff16155b61086a576040517f08c379a000000000000000000000000000000000000000000000000000000000815260040161086190612331565b60405180910390fd5b60008060159054906101000a900460ff1615905080156108bb576001600060156101000a81548160ff0219169083151502179055506001600060146101000a81548160ff0219169083151502179055505b61092f6040518060400160405280601581526020017f486172766172642d576573746c616b6520436f696e00000000000000000000008152506040518060400160405280600381526020017f48574300000000000000000000000000000000000000000000000000000000008152506115a2565b6109593361093b61063d565b600a61094791906125b8565b6103e861095491906126d6565b611692565b801561097a5760008060156101000a81548160ff0219169083151502179055505b50565b60008060009054906101000a900473ffffffffffffffffffffffffffffffffffffffff16905090565b600060c960009054906101000a900473ffffffffffffffffffffffffffffffffffffffff16905090565b6060603780546109df906127c7565b80601f0160208091040260200160405190810160405280929190818152602001828054610a0b906127c7565b8015610a585780601f10610a2d57610100808354040283529160200191610a58565b820191906000526020600020905b815481529060010190602001808311610a3b57829003601f168201915b5050505050905090565b60008060346000610a71610e35565b73ffffffffffffffffffffffffffffffffffffffff1673ffffffffffffffffffffffffffffffffffffffff16815260200190815260200160002060008573ffffffffffffffffffffffffffffffffffffffff1673ffffffffffffffffffffffffffffffffffffffff16815260200190815260200160002054905082811015610b2e576040517f08c379a0000000000000000000000000000000000000000000000000000000008152600401610b2590612411565b60405180910390fd5b610b42610b39610e35565b85858403610e3d565b600191505092915050565b60008054906101000a900473ffffffffffffffffffffffffffffffffffffffff1673ffffffffffffffffffffffffffffffffffffffff163373ffffffffffffffffffffffffffffffffffffffff1614610bdb576040517f08c379a0000000000000000000000000000000000000000000000000000000008152600401610bd2906122f1565b60405180910390fd5b8073ffffffffffffffffffffffffffffffffffffffff1660008054906101000a900473ffffffffffffffffffffffffffffffffffffffff1673ffffffffffffffffffffffffffffffffffffffff167f342827c97908e5e2f71151c08502a66d44b6f758e3ac2f1de95f02eb95f0a73560405160405180910390a3806000806101000a81548173ffffffffffffffffffffffffffffffffffffffff021916908373ffffffffffffffffffffffffffffffffffffffff16021790555050565b6000610cac610ca5610e35565b8484611008565b6001905092915050565b6000603460008473ffffffffffffffffffffffffffffffffffffffff1673ffffffffffffffffffffffffffffffffffffffff16815260200190815260200160002060008373ffffffffffffffffffffffffffffffffffffffff1673ffffffffffffffffffffffffffffffffffffffff16815260200190815260200160002054905092915050565b610d45610e35565b73ffffffffffffffffffffffffffffffffffffffff16610d636109a6565b73ffffffffffffffffffffffffffffffffffffffff1614610db9576040517f08c379a0000000000000000000000000000000000000000000000000000000008152600401610db090612391565b60405180910390fd5b600073ffffffffffffffffffffffffffffffffffffffff168173ffffffffffffffffffffffffffffffffffffffff161415610e29576040517f08c379a0000000000000000000000000000000000000000000000000000000008152600401610e20906122b1565b60405180910390fd5b610e32816114dc565b50565b600033905090565b600073ffffffffffffffffffffffffffffffffffffffff168373ffffffffffffffffffffffffffffffffffffffff161415610ead576040517f08c379a0000000000000000000000000000000000000000000000000000000008152600401610ea4906123f1565b60405180910390fd5b600073ffffffffffffffffffffffffffffffffffffffff168273ffffffffffffffffffffffffffffffffffffffff161415610f1d576040517f08c379a0000000000000000000000000000000000000000000000000000000008152600401610f14906122d1565b60405180910390fd5b80603460008573ffffffffffffffffffffffffffffffffffffffff1673ffffffffffffffffffffffffffffffffffffffff16815260200190815260200160002060008473ffffffffffffffffffffffffffffffffffffffff1673ffffffffffffffffffffffffffffffffffffffff168152602001908152602001600020819055508173ffffffffffffffffffffffffffffffffffffffff168373ffffffffffffffffffffffffffffffffffffffff167f8c5be1e5ebec7d5bd14f71427d1e84f3dd0314c0f7b2291e5b200ac8c7c3b92583604051610ffb9190612451565b60405180910390a3505050565b600073ffffffffffffffffffffffffffffffffffffffff168373ffffffffffffffffffffffffffffffffffffffff161415611078576040517f08c379a000000000000000000000000000000000000000000000000000000000815260040161106f906123d1565b60405180910390fd5b600073ffffffffffffffffffffffffffffffffffffffff168273ffffffffffffffffffffffffffffffffffffffff1614156110e8576040517f08c379a00000000000000000000000000000000000000000000000000000000081526004016110df90612271565b60405180910390fd5b6110f38383836117f3565b6000603360008573ffffffffffffffffffffffffffffffffffffffff1673ffffffffffffffffffffffffffffffffffffffff1681526020019081526020016000205490508181101561117a576040517f08c379a000000000000000000000000000000000000000000000000000000000815260040161117190612311565b60405180910390fd5b818103603360008673ffffffffffffffffffffffffffffffffffffffff1673ffffffffffffffffffffffffffffffffffffffff1681526020019081526020016000208190555081603360008573ffffffffffffffffffffffffffffffffffffffff1673ffffffffffffffffffffffffffffffffffffffff168152602001908152602001600020600082825461120f919061250f565b925050819055508273ffffffffffffffffffffffffffffffffffffffff168473ffffffffffffffffffffffffffffffffffffffff167fddf252ad1be2c89b69c2b068fc378daa952ba7f163c4a11628f55a4df523b3ef846040516112739190612451565b60405180910390a36112868484846117f8565b50505050565b611294610e35565b73ffffffffffffffffffffffffffffffffffffffff166112b26109a6565b73ffffffffffffffffffffffffffffffffffffffff1614611308576040517f08c379a00000000000000000000000000000000000000000000000000000000081526004016112ff90612391565b60405180910390fd5b50565b60006113156117fd565b905061132084611854565b60008351118061132d5750815b1561133e5761133c848461190d565b505b600061136c7f4910fdfa16fed3260ed0e7147f7cc6da11a60208b5b9406d12a635614ffd914360001b6119f1565b90508060000160009054906101000a900460ff166114d55760018160000160006101000a81548160ff02191690831515021790555061143885836040516024016113b69190612219565b6040516020818303038152906040527f3659cfe6000000000000000000000000000000000000000000000000000000007bffffffffffffffffffffffffffffffffffffffffffffffffffffffff19166020820180517bffffffffffffffffffffffffffffffffffffffffffffffffffffffff838183161783525050505061190d565b5060008160000160006101000a81548160ff02191690831515021790555061145e6117fd565b73ffffffffffffffffffffffffffffffffffffffff168273ffffffffffffffffffffffffffffffffffffffff16146114cb576040517f08c379a00000000000000000000000000000000000000000000000000000000081526004016114c290612291565b60405180910390fd5b6114d4856119fb565b5b5050505050565b600060c960009054906101000a900473ffffffffffffffffffffffffffffffffffffffff1690508160c960006101000a81548173ffffffffffffffffffffffffffffffffffffffff021916908373ffffffffffffffffffffffffffffffffffffffff1602179055508173ffffffffffffffffffffffffffffffffffffffff168173ffffffffffffffffffffffffffffffffffffffff167f8be0079c531659141344cd1fd0a4f28419497f9722a3daafe3b4186f6b6457e060405160405180910390a35050565b600060159054906101000a900460ff16806115ca5750600060149054906101000a900460ff16155b611609576040517f08c379a000000000000000000000000000000000000000000000000000000000815260040161160090612331565b60405180910390fd5b60008060159054906101000a900460ff16159050801561165a576001600060156101000a81548160ff0219169083151502179055506001600060146101000a81548160ff0219169083151502179055505b611662611a4a565b61166c8383611b26565b801561168d5760008060156101000a81548160ff0219169083151502179055505b505050565b600073ffffffffffffffffffffffffffffffffffffffff168273ffffffffffffffffffffffffffffffffffffffff161415611702576040517f08c379a00000000000000000000000000000000000000000000000000000000081526004016116f990612431565b60405180910390fd5b61170e600083836117f3565b8060356000828254611720919061250f565b9250508190555080603360008473ffffffffffffffffffffffffffffffffffffffff1673ffffffffffffffffffffffffffffffffffffffff1681526020019081526020016000206000828254611776919061250f565b925050819055508173ffffffffffffffffffffffffffffffffffffffff16600073ffffffffffffffffffffffffffffffffffffffff167fddf252ad1be2c89b69c2b068fc378daa952ba7f163c4a11628f55a4df523b3ef836040516117db9190612451565b60405180910390a36117ef600083836117f8565b5050565b505050565b505050565b600061182b7f360894a13ba1a3210667c828492db98dca3e2076cc3735a920a3ca505d382bbc60001b611c32565b60000160009054906101000a900473ffffffffffffffffffffffffffffffffffffffff16905090565b61185d81611c3c565b61189c576040517f08c379a000000000000000000000000000000000000000000000000000000000815260040161189390612351565b60405180910390fd5b806118c97f360894a13ba1a3210667c828492db98dca3e2076cc3735a920a3ca505d382bbc60001b611c32565b60000160006101000a81548173ffffffffffffffffffffffffffffffffffffffff021916908373ffffffffffffffffffffffffffffffffffffffff16021790555050565b606061191883611c3c565b611957576040517f08c379a000000000000000000000000000000000000000000000000000000000815260040161194e906123b1565b60405180910390fd5b6000808473ffffffffffffffffffffffffffffffffffffffff168460405161197f9190612202565b600060405180830381855af49150503d80600081146119ba576040519150601f19603f3d011682016040523d82523d6000602084013e6119bf565b606091505b50915091506119e78282604051806060016040528060278152602001612d4760279139611c4f565b9250505092915050565b6000819050919050565b611a0481611854565b8073ffffffffffffffffffffffffffffffffffffffff167fbc7cd75a20ee27fd9adebab32041f755214dbc6bffa90cc0225b39da2e5c2d3b60405160405180910390a250565b600060159054906101000a900460ff1680611a725750600060149054906101000a900460ff16155b611ab1576040517f08c379a0000000000000000000000000000000000000000000000000000000008152600401611aa890612331565b60405180910390fd5b60008060159054906101000a900460ff161590508015611b02576001600060156101000a81548160ff0219169083151502179055506001600060146101000a81548160ff0219169083151502179055505b8015611b235760008060156101000a81548160ff0219169083151502179055505b50565b600060159054906101000a900460ff1680611b4e5750600060149054906101000a900460ff16155b611b8d576040517f08c379a0000000000000000000000000000000000000000000000000000000008152600401611b8490612331565b60405180910390fd5b60008060159054906101000a900460ff161590508015611bde576001600060156101000a81548160ff0219169083151502179055506001600060146101000a81548160ff0219169083151502179055505b8260369080519060200190611bf4929190611cb6565b508160379080519060200190611c0b929190611cb6565b508015611c2d5760008060156101000a81548160ff0219169083151502179055505b505050565b6000819050919050565b600080823b905060008111915050919050565b60608315611c5f57829050611caf565b600083511115611c725782518084602001fd5b816040517f08c379a0000000000000000000000000000000000000000000000000000000008152600401611ca6919061224f565b60405180910390fd5b9392505050565b828054611cc2906127c7565b90600052602060002090601f016020900481019282611ce45760008555611d2b565b82601f10611cfd57805160ff1916838001178555611d2b565b82800160010185558215611d2b579182015b82811115611d2a578251825591602001919060010190611d0f565b5b509050611d389190611d3c565b5090565b5b80821115611d55576000816000905550600101611d3d565b5090565b6000611d6c611d67846124ac565b612487565b905082815260208101848484011115611d8857611d876128bc565b5b611d93848285612785565b509392505050565b600081359050611daa81612d18565b92915050565b600082601f830112611dc557611dc46128b7565b5b8135611dd5848260208601611d59565b91505092915050565b600081359050611ded81612d2f565b92915050565b600060208284031215611e0957611e086128c6565b5b6000611e1784828501611d9b565b91505092915050565b60008060408385031215611e3757611e366128c6565b5b6000611e4585828601611d9b565b9250506020611e5685828601611d9b565b9150509250929050565b600080600060608486031215611e7957611e786128c6565b5b6000611e8786828701611d9b565b9350506020611e9886828701611d9b565b9250506040611ea986828701611dde565b9150509250925092565b60008060408385031215611eca57611ec96128c6565b5b6000611ed885828601611d9b565b925050602083013567ffffffffffffffff811115611ef957611ef86128c1565b5b611f0585828601611db0565b9150509250929050565b60008060408385031215611f2657611f256128c6565b5b6000611f3485828601611d9b565b9250506020611f4585828601611dde565b9150509250929050565b611f5881612730565b82525050565b611f6781612742565b82525050565b6000611f78826124dd565b611f8281856124f3565b9350611f92818560208601612794565b80840191505092915050565b6000611fa9826124e8565b611fb381856124fe565b9350611fc3818560208601612794565b611fcc816128cb565b840191505092915050565b6000611fe46023836124fe565b9150611fef826128e9565b604082019050919050565b6000612007602f836124fe565b915061201282612938565b604082019050919050565b600061202a6026836124fe565b915061203582612987565b604082019050919050565b600061204d6022836124fe565b9150612058826129d6565b604082019050919050565b60006120706013836124fe565b915061207b82612a25565b602082019050919050565b60006120936026836124fe565b915061209e82612a4e565b604082019050919050565b60006120b6602e836124fe565b91506120c182612a9d565b604082019050919050565b60006120d9602d836124fe565b91506120e482612aec565b604082019050919050565b60006120fc6028836124fe565b915061210782612b3b565b604082019050919050565b600061211f6020836124fe565b915061212a82612b8a565b602082019050919050565b60006121426026836124fe565b915061214d82612bb3565b604082019050919050565b60006121656025836124fe565b915061217082612c02565b604082019050919050565b60006121886024836124fe565b915061219382612c51565b604082019050919050565b60006121ab6025836124fe565b91506121b682612ca0565b604082019050919050565b60006121ce601f836124fe565b91506121d982612cef565b602082019050919050565b6121ed8161276e565b82525050565b6121fc81612778565b82525050565b600061220e8284611f6d565b915081905092915050565b600060208201905061222e6000830184611f4f565b92915050565b60006020820190506122496000830184611f5e565b92915050565b600060208201905081810360008301526122698184611f9e565b905092915050565b6000602082019050818103600083015261228a81611fd7565b9050919050565b600060208201905081810360008301526122aa81611ffa565b9050919050565b600060208201905081810360008301526122ca8161201d565b9050919050565b600060208201905081810360008301526122ea81612040565b9050919050565b6000602082019050818103600083015261230a81612063565b9050919050565b6000602082019050818103600083015261232a81612086565b9050919050565b6000602082019050818103600083015261234a816120a9565b9050919050565b6000602082019050818103600083015261236a816120cc565b9050919050565b6000602082019050818103600083015261238a816120ef565b9050919050565b600060208201905081810360008301526123aa81612112565b9050919050565b600060208201905081810360008301526123ca81612135565b9050919050565b600060208201905081810360008301526123ea81612158565b9050919050565b6000602082019050818103600083015261240a8161217b565b9050919050565b6000602082019050818103600083015261242a8161219e565b9050919050565b6000602082019050818103600083015261244a816121c1565b9050919050565b600060208201905061246660008301846121e4565b92915050565b600060208201905061248160008301846121f3565b92915050565b60006124916124a2565b905061249d82826127f9565b919050565b6000604051905090565b600067ffffffffffffffff8211156124c7576124c6612888565b5b6124d0826128cb565b9050602081019050919050565b600081519050919050565b600081519050919050565b600081905092915050565b600082825260208201905092915050565b600061251a8261276e565b91506125258361276e565b9250827fffffffffffffffffffffffffffffffffffffffffffffffffffffffffffffffff0382111561255a5761255961282a565b5b828201905092915050565b6000808291508390505b60018511156125af5780860481111561258b5761258a61282a565b5b600185161561259a5780820291505b80810290506125a8856128dc565b945061256f565b94509492505050565b60006125c38261276e565b91506125ce83612778565b92506125fb7fffffffffffffffffffffffffffffffffffffffffffffffffffffffffffffffff8484612603565b905092915050565b60008261261357600190506126cf565b8161262157600090506126cf565b8160018114612637576002811461264157612670565b60019150506126cf565b60ff8411156126535761265261282a565b5b8360020a91508482111561266a5761266961282a565b5b506126cf565b5060208310610133831016604e8410600b84101617156126a55782820a9050838111156126a05761269f61282a565b5b6126cf565b6126b28484846001612565565b925090508184048111156126c9576126c861282a565b5b81810290505b9392505050565b60006126e18261276e565b91506126ec8361276e565b9250817fffffffffffffffffffffffffffffffffffffffffffffffffffffffffffffffff04831182151516156127255761272461282a565b5b828202905092915050565b600061273b8261274e565b9050919050565b60008115159050919050565b600073ffffffffffffffffffffffffffffffffffffffff82169050919050565b6000819050919050565b600060ff82169050919050565b82818337600083830152505050565b60005b838110156127b2578082015181840152602081019050612797565b838111156127c1576000848401525b50505050565b600060028204905060018216806127df57607f821691505b602082108114156127f3576127f2612859565b5b50919050565b612802826128cb565b810181811067ffffffffffffffff8211171561282157612820612888565b5b80604052505050565b7f4e487b7100000000000000000000000000000000000000000000000000000000600052601160045260246000fd5b7f4e487b7100000000000000000000000000000000000000000000000000000000600052602260045260246000fd5b7f4e487b7100000000000000000000000000000000000000000000000000000000600052604160045260246000fd5b600080fd5b600080fd5b600080fd5b600080fd5b6000601f19601f8301169050919050565b60008160011c9050919050565b7f45524332303a207472616e7366657220746f20746865207a65726f206164647260008201527f6573730000000000000000000000000000000000000000000000000000000000602082015250565b7f45524331393637557067726164653a207570677261646520627265616b73206660008201527f7572746865722075706772616465730000000000000000000000000000000000602082015250565b7f4f776e61626c653a206e6577206f776e657220697320746865207a65726f206160008201527f6464726573730000000000000000000000000000000000000000000000000000602082015250565b7f45524332303a20617070726f766520746f20746865207a65726f20616464726560008201527f7373000000000000000000000000000000000000000000000000000000000000602082015250565b7f43616c6c6572206973206e6f74206f776e657200000000000000000000000000600082015250565b7f45524332303a207472616e7366657220616d6f756e742065786365656473206260008201527f616c616e63650000000000000000000000000000000000000000000000000000602082015250565b7f496e697469616c697a61626c653a20636f6e747261637420697320616c72656160008201527f647920696e697469616c697a6564000000000000000000000000000000000000602082015250565b7f455243313936373a206e657720696d706c656d656e746174696f6e206973206e60008201527f6f74206120636f6e747261637400000000000000000000000000000000000000602082015250565b7f45524332303a207472616e7366657220616d6f756e742065786365656473206160008201527f6c6c6f77616e6365000000000000000000000000000000000000000000000000602082015250565b7f4f776e61626c653a2063616c6c6572206973206e6f7420746865206f776e6572600082015250565b7f416464726573733a2064656c65676174652063616c6c20746f206e6f6e2d636f60008201527f6e74726163740000000000000000000000000000000000000000000000000000602082015250565b7f45524332303a207472616e736665722066726f6d20746865207a65726f20616460008201527f6472657373000000000000000000000000000000000000000000000000000000602082015250565b7f45524332303a20617070726f76652066726f6d20746865207a65726f2061646460008201527f7265737300000000000000000000000000000000000000000000000000000000602082015250565b7f45524332303a2064656372656173656420616c6c6f77616e63652062656c6f7760008201527f207a65726f000000000000000000000000000000000000000000000000000000602082015250565b7f45524332303a206d696e7420746f20746865207a65726f206164647265737300600082015250565b612d2181612730565b8114612d2c57600080fd5b50565b612d388161276e565b8114612d4357600080fd5b5056fe416464726573733a206c6f772d6c6576656c2064656c65676174652063616c6c206661696c6564a264697066735822122016bb68504f8dabf103258a809361a2a7bac53d923be2117530492b3b1c7da13264736f6c63430008070033",
  "linkReferences": {},
  "deployedLinkReferences": {}
}